{
  "abi": [
    {
      "inputs": [
        {
          "internalType": "contract IERC20",
          "name": "_token",
          "type": "address"
        }
      ],
      "stateMutability": "nonpayable",
      "type": "constructor"
    },
    {
      "anonymous": false,
      "inputs": [
        {
          "indexed": true,
          "internalType": "address",
          "name": "previousOwner",
          "type": "address"
        },
        {
          "indexed": true,
          "internalType": "address",
          "name": "newOwner",
          "type": "address"
        }
      ],
      "name": "OwnershipTransferred",
      "type": "event"
    },
    {
      "inputs": [
        {
          "internalType": "address[]",
          "name": "recipients",
          "type": "address[]"
        },
        {
          "internalType": "uint256[]",
          "name": "amounts",
          "type": "uint256[]"
        }
      ],
      "name": "airdrop",
      "outputs": [],
      "stateMutability": "nonpayable",
      "type": "function"
    },
    {
      "inputs": [
        {
          "internalType": "address[]",
          "name": "recipients",
          "type": "address[]"
        }
      ],
      "name": "airdropPresetAmount",
      "outputs": [],
      "stateMutability": "nonpayable",
      "type": "function"
    },
    {
      "inputs": [],
      "name": "owner",
      "outputs": [
        {
          "internalType": "address",
          "name": "",
          "type": "address"
        }
      ],
      "stateMutability": "view",
      "type": "function"
    },
    {
      "inputs": [],
      "name": "preset_amount",
      "outputs": [
        {
          "internalType": "uint256",
          "name": "",
          "type": "uint256"
        }
      ],
      "stateMutability": "view",
      "type": "function"
    },
    {
      "inputs": [],
      "name": "renounceOwnership",
      "outputs": [],
      "stateMutability": "nonpayable",
      "type": "function"
    },
    {
      "inputs": [
        {
          "internalType": "uint256",
          "name": "amount",
          "type": "uint256"
        }
      ],
      "name": "setPresetAmount",
      "outputs": [],
      "stateMutability": "nonpayable",
      "type": "function"
    },
    {
      "inputs": [
        {
          "internalType": "contract IERC20",
          "name": "_token",
          "type": "address"
        }
      ],
      "name": "setTokenAddress",
      "outputs": [],
      "stateMutability": "nonpayable",
      "type": "function"
    },
    {
      "inputs": [],
      "name": "token",
      "outputs": [
        {
          "internalType": "contract IERC20",
          "name": "",
          "type": "address"
        }
      ],
      "stateMutability": "view",
      "type": "function"
    },
    {
      "inputs": [
        {
          "internalType": "address",
          "name": "newOwner",
          "type": "address"
        }
      ],
      "name": "transferOwnership",
      "outputs": [],
      "stateMutability": "nonpayable",
      "type": "function"
    }
  ],
  "bytecode": {
    "object": "0x608060405234801561001057600080fd5b50604051610a7e380380610a7e83398101604081905261002f916100b1565b61003833610061565b60018055600280546001600160a01b0319166001600160a01b03929092169190911790556100e1565b600080546001600160a01b038381166001600160a01b0319831681178455604051919092169283917f8be0079c531659141344cd1fd0a4f28419497f9722a3daafe3b4186f6b6457e09190a35050565b6000602082840312156100c357600080fd5b81516001600160a01b03811681146100da57600080fd5b9392505050565b61098e806100f06000396000f3fe608060405234801561001057600080fd5b50600436106100a35760003560e01c8063715018a611610076578063f2fde38b1161005b578063f2fde38b14610142578063fc0c546a14610155578063fd33d1d41461017557600080fd5b8063715018a6146100f65780638da5cb5b146100fe57600080fd5b8063249ff5e4146100a857806326a4e8d2146100bd5780635aa1bdea146100d057806367243482146100e3575b600080fd5b6100bb6100b636600461076c565b61018c565b005b6100bb6100cb3660046107d0565b610213565b6100bb6100de3660046107f4565b610262565b6100bb6100f136600461080d565b61026f565b6100bb61037c565b60005473ffffffffffffffffffffffffffffffffffffffff165b60405173ffffffffffffffffffffffffffffffffffffffff90911681526020015b60405180910390f35b6100bb6101503660046107d0565b610390565b6002546101189073ffffffffffffffffffffffffffffffffffffffff1681565b61017e60035481565b604051908152602001610139565b610194610447565b61019c6104c8565b60005b81811015610205576002546101f39073ffffffffffffffffffffffffffffffffffffffff168484848181106101d6576101d6610879565b90506020020160208101906101eb91906107d0565b60035461053b565b806101fd816108a8565b91505061019f565b5061020f60018055565b5050565b61021b610447565b600280547fffffffffffffffffffffffff00000000000000000000000000000000000000001673ffffffffffffffffffffffffffffffffffffffff92909216919091179055565b61026a610447565b600355565b610277610447565b61027f6104c8565b8281146102ed576040517f08c379a000000000000000000000000000000000000000000000000000000000815260206004820152601660248201527f41697264726f703a20496e76616c696420696e7075740000000000000000000060448201526064015b60405180910390fd5b60005b8381101561036c5760025461035a9073ffffffffffffffffffffffffffffffffffffffff1686868481811061032757610327610879565b905060200201602081019061033c91906107d0565b85858581811061034e5761034e610879565b9050602002013561053b565b80610364816108a8565b9150506102f0565b5061037660018055565b50505050565b610384610447565b61038e60006106ab565b565b610398610447565b73ffffffffffffffffffffffffffffffffffffffff811661043b576040517f08c379a000000000000000000000000000000000000000000000000000000000815260206004820152602660248201527f4f776e61626c653a206e6577206f776e657220697320746865207a65726f206160448201527f646472657373000000000000000000000000000000000000000000000000000060648201526084016102e4565b610444816106ab565b50565b60005473ffffffffffffffffffffffffffffffffffffffff16331461038e576040517f08c379a000000000000000000000000000000000000000000000000000000000815260206004820181905260248201527f4f776e61626c653a2063616c6c6572206973206e6f7420746865206f776e657260448201526064016102e4565b600260015403610534576040517f08c379a000000000000000000000000000000000000000000000000000000000815260206004820152601f60248201527f5265656e7472616e637947756172643a207265656e7472616e742063616c6c0060448201526064016102e4565b6002600155565b6040805173ffffffffffffffffffffffffffffffffffffffff8481166024830152604480830185905283518084039091018152606490920183526020820180517bffffffffffffffffffffffffffffffffffffffffffffffffffffffff167fa9059cbb0000000000000000000000000000000000000000000000000000000017905291516000928392908716916105d29190610907565b6000604051808303816000865af19150503d806000811461060f576040519150601f19603f3d011682016040523d82523d6000602084013e610614565b606091505b509150915081801561063e57508051158061063e57508080602001905181019061063e9190610936565b6106a4576040517f08c379a000000000000000000000000000000000000000000000000000000000815260206004820152601f60248201527f5472616e7366657248656c7065723a205452414e534645525f4641494c45440060448201526064016102e4565b5050505050565b6000805473ffffffffffffffffffffffffffffffffffffffff8381167fffffffffffffffffffffffff0000000000000000000000000000000000000000831681178455604051919092169283917f8be0079c531659141344cd1fd0a4f28419497f9722a3daafe3b4186f6b6457e09190a35050565b60008083601f84011261073257600080fd5b50813567ffffffffffffffff81111561074a57600080fd5b6020830191508360208260051b850101111561076557600080fd5b9250929050565b6000806020838503121561077f57600080fd5b823567ffffffffffffffff81111561079657600080fd5b6107a285828601610720565b90969095509350505050565b73ffffffffffffffffffffffffffffffffffffffff8116811461044457600080fd5b6000602082840312156107e257600080fd5b81356107ed816107ae565b9392505050565b60006020828403121561080657600080fd5b5035919050565b6000806000806040858703121561082357600080fd5b843567ffffffffffffffff8082111561083b57600080fd5b61084788838901610720565b9096509450602087013591508082111561086057600080fd5b5061086d87828801610720565b95989497509550505050565b7f4e487b7100000000000000000000000000000000000000000000000000000000600052603260045260246000fd5b60007fffffffffffffffffffffffffffffffffffffffffffffffffffffffffffffffff8203610900577f4e487b7100000000000000000000000000000000000000000000000000000000600052601160045260246000fd5b5060010190565b6000825160005b81811015610928576020818601810151858301520161090e565b506000920191825250919050565b60006020828403121561094857600080fd5b815180151581146107ed57600080fdfea2646970667358221220d8c51fb9575ea43b6e9ed6465fd26ab68766d967e2cb0aede5e76fde5904f91064736f6c63430008140033",
    "linkReferences": {}
  },
  "methodIdentifiers": {
    "airdrop(address[],uint256[])": "67243482",
    "airdropPresetAmount(address[])": "249ff5e4",
    "owner()": "8da5cb5b",
    "preset_amount()": "fd33d1d4",
    "renounceOwnership()": "715018a6",
    "setPresetAmount(uint256)": "5aa1bdea",
    "setTokenAddress(address)": "26a4e8d2",
    "token()": "fc0c546a",
    "transferOwnership(address)": "f2fde38b"
  },
  "id": 38
}